:100000000C9434000C943E000C943E000C943E0082
:100010000C943E000C943E000C943E000C943E0068
:100020000C943E000C943E000C943E000C943E0058
:100030000C943E000C943E000C943E000C943E0048
:100040000C943E000C943E000C943E000C943E0038
:100050000C943E000C943E000C943E000C943E0028
:100060000C943E000C943E0011241FBECFEFD8E04C
:10007000DEBFCDBF0E9440000C946A000C940000CB
:100080008FE384B98FEF85B941E050E080E090E0E4
:100090009A01082E01C0220F0A94EAF725B96FEFE2
:1000A00079E6E8E161507040E040E1F700C000000F
:1000B00035B12095232325B92FEF39E668E121508A
:1000C00030406040E1F700C00000019686309105A5
:0800D000F9F6DCCFF894FFCF34
:00000001FF